:100000000C945D000C9485000C9485000C94850084
:100010000C9485000C9485000C9485000C9485004C
:100020000C9485000C9485000C9485000C9485003C
:100030000C9485000C9485000C9485000C9485002C
:100040000C944D070C9485000C941B070C94F5063A
:100050000C9485000C9485000C9485000C9485000C
:100060000C9485000C94850000000008000201003B
:100070000003040700000000000000000000000072
:10008000250028002B0000000000240027002A0083
:10009000040404040404040402020202020203032E
:1000A0000303030301020408102040800102040836
:1000B0001020010204081020530911241FBECFEFA5
:1000C000D8E0DEBFCDBF24E0AEE7B2E001C01D92B4
:1000D000A035B207E1F712E0A0E0B1E0EAE9F9E10A
:1000E00002C005900D92AE37B107D9F710E0CDE50B
:1000F000D0E004C02197FE010E94010ACC35D1074F
:10010000C9F70E9497070C94CB0C0C94000090E068
:10011000FC01EC55FF4F249180579F4FFC018491C7
:10012000882399F090E0880F991FFC01EA57FF4F50
:10013000A591B491FC01E458FF4F859194918FB73C
:10014000F894EC91E22BEC938FBF089508950C94F2
:100150008700AF92BF92CF92DF92EF92FF920F9300
:100160001F93CF93DF936C017B018B01040F151F4D
:10017000EB015E01AE18BF08C017D10759F06991B5
:10018000D601ED91FC910190F081E02DC601099519
:10019000892B79F7C501DF91CF911F910F91FF90C6
:1001A000EF90DF90CF90BF90AF900895FC01538DFA
:1001B000448D252F30E0842F90E0821B930B541741
:1001C00010F0CF96089501970895FC01918D828DCE
:1001D000981761F0A28DAE0FBF2FB11D5D968C9167
:1001E000928D9F5F9F73928F90E008958FEF9FEFA6
:1001F0000895FC01918D828D981731F0828DE80F62
:10020000F11D858D90E008958FEF9FEF0895FC011B
:10021000918D228D892F90E0805C9F4F821B9109E8
:100220008F739927089585EE92E00E94070121E0DF
:10023000892B09F420E0822F089580E090E0892B3B
:1002400029F00E94130181110C940000089585EE9D
:1002500092E00C940701FC01A48DA80FB92FB11DE9
:10026000A35ABF4F2C91848D90E001968F739927EC
:10027000848FA689B7892C93A089B1898C918370CA
:1002800080648C93938D848D981306C00288F389C3
:10029000E02D80818F7D80830895EF92FF920F93F0
:1002A0001F93CF93DF93EC0181E0888F9B8D8C8D22
:1002B00098131AC0E889F989808185FF15C09FB716
:1002C000F894EE89FF896083E889F98980818370D9
:1002D000806480839FBF81E090E0DF91CF911F9188
:1002E0000F91FF90EF900895F62E0B8D10E00F5FA9
:1002F0001F4F0F731127E02E8C8D8E110CC00FB67F
:1003000007FCFACFE889F989808185FFF5CFCE0116
:100310000E942B01F1CFEB8DEC0FFD2FF11DE35A65
:10032000FF4FF0829FB7F8940B8FEA89FB89808199
:100330008062CFCFCF93DF93EC01888D8823B9F013
:10034000AA89BB89E889F9898C9185FD03C08081E0
:1003500086FD0DC00FB607FCF7CF8C9185FFF2CF5D
:10036000808185FFEDCFCE010E942B01E9CFDF9187
:10037000CF91089590E0FC01E859FF4F2491FC01D2
:10038000EC55FF4F3491FC01E057FF4FE491EE2311
:10039000C9F0222339F0233001F1A8F4213019F1FA
:1003A000223029F1F0E0EE0FFF1FE458FF4FA59136
:1003B000B4918FB7F894EC91611126C030953E232B
:1003C0003C938FBF08952730A9F02830C9F024301E
:1003D00049F7809180008F7D03C0809180008F77E6
:1003E00080938000DFCF84B58F7784BDDBCF84B569
:1003F0008F7DFBCF8091B0008F778093B000D2CFFC
:100400008091B0008F7DF9CF3E2BDACF60E00C9465
:10041000BA0161E00C94BA013FB7F8948091E1020F
:100420009091E202A091E302B091E40226B5A89B6C
:1004300005C02F3F19F00196A11DB11D3FBFBA2F76
:10044000A92F982F8827BC01CD01620F711D811D36
:10045000911D42E0660F771F881F991F4A95D1F7BB
:1004600008958F929F92AF92BF92CF92DF92EF92B8
:10047000FF926B017C010E940C024B015C01C114D4
:10048000D104E104F104B9F00E940C026819790961
:100490008A099B09683E73408105910580F321E03C
:1004A000C21AD108E108F10888EE880E83E0981E90
:1004B000A11CB11CE4CFFF90EF90DF90CF90BF90D4
:1004C000AF909F908F9008950C943102682F85EE25
:1004D00092E00C944D01EF92FF920F931F93CF93F4
:1004E000DF937B018C01D0E0C0E0CE15DF0508F082
:1004F0003DC02FB7F8948091DD029091DE02A0916B
:10050000DF02B091E0022FBF8093ED029093EE02E4
:10051000A093EF02B093F00285EE92E00E94E50016
:1005200097FF2CC02FB7F8948091DD029091DE02E6
:10053000A091DF02B091E0022FBF4091ED025091F7
:10054000EE026091EF027091F002841B950BA60BF6
:10055000B70B4091E9025091EA026091EB02709171
:10056000EC0284179507A607B707B0F2CE01DF911A
:10057000CF911F910F91FF90EF900895F801819313
:100580008F012196B2CFCF92DF92EF92FF926C0152
:10059000990FEE08FF0860E079E08DE390E0A70195
:1005A00096010E94CB092150310941095109569504
:1005B000479537952795E091F502F091F60282E094
:1005C0008083211580E13807A8F0E091F502F091D1
:1005D000F602108260E874E88EE190E0A7019601CF
:1005E0000E94CB092150310941095109569547957F
:1005F00037952795E091F102F091F2023083E09176
:10060000F302F091F40220831092FD02E091F902CE
:10061000F091FA0286E08083E091F702F091F8020F
:10062000808180618083E091F702F091F8028081FF
:1006300088608083E091F702F091F8028081806801
:100640008083E091F702F091F80280818F7D8083B2
:1006500080E29EE4A0E0B0E08093E9029093EA0299
:10066000A093EB02B093EC02FF90EF90DF90CF905D
:1006700008950895E0918C03F0918D030994E09121
:100680008203F091830309940F931F93CF93DF9319
:10069000EC01843691052CF164E670E00E94B70904
:1006A00083E26A30710524F465577E4FFB01808137
:1006B0000E943F03CE0164E670E00E94B709EC019E
:1006C000CA30D10594F0CE016AE070E00E94B7090B
:1006D0008C0165577E4FFB0180810E943F03E8013A
:1006E00007C080E30E943F03EBCF80E30E943F03FB
:1006F00083E2CA30D10518F4C557DE4F8881DF91F7
:10070000CF911F910F910C943F03CF92DF92EF9204
:10071000FF920F931F93CF93DF938C0197FF04C039
:1007200088279927801B910B7C01C1E0D0E04AE02B
:100730008C179D07D4F48AE0C82ED12CCA30D1057D
:10074000DCF0CE01B6010E94B709EB01C7010E949F
:10075000B7097C0183E26A30710524F465577E4F46
:10076000FB0180810E943F03E9CF9E01429FE0018F
:10077000439FD00D1124DCCF8DE217FF8BE2DF9178
:10078000CF911F910F91FF90EF90DF90CF900C943D
:100790003F039F92AF92BF92CF92DF92EF92FF9270
:1007A0000F931F93CF93DF9383E50E943F038091C4
:1007B0006701909168019C012F5F3F4F283E43E005
:1007C000340709F446C030936801209367010E9402
:1007D000440325E9A22E21E0B22E33ECE32E31E0D2
:1007E000F32E2091010130910201C701835C9140F9
:1007F000821793070CF046C08DECC82E81E0D82EEE
:1008000096E7992EE601CD5CD140D7018C910E94EC
:100810003F03892D0E943F03D501ED91FC91C23029
:10082000D10551F1D8F4209709F1219711F1C801B0
:100830000E948503BFEFCB1ADB0AF6019080FFE22E
:100840009F12E0CF4FEFE41AF40A82E0A80EB11C29
:10085000C8CF1092680110926701B9CFC330D1059B
:1008600071F0249721F700851185E1CF0081118176
:10087000DECF02811381DBCF04811581D8CF0681C1
:100880001781D5CFDF91CF911F910F91FF90EF90FE
:10089000DF90CF90BF90AF909F900895E091860336
:1008A000F09187030994E0918A03F0918B030994F6
:1008B00080E00895EF92FF920F931F93CF93DF9301
:1008C000CDB7DEB7EDB6FEB62DB73EB7281B390B58
:1008D0000FB6F8943EBF0FBE2DBF0DB71EB70F5F0A
:1008E0001F4FE0918403F0918503BC01C801099575
:1008F000F801A3E0B1E09D012350314028173907EA
:100900001CF421912D93F7CF0FB6F894FEBE0FBEC5
:10091000EDBEDF91CF911F910F91FF90EF90089561
:10092000CF938091DA029091DB022091D80230912E
:10093000D9028217930744F58D5F9E4FFC01C08159
:10094000CA35E9F460916D0170916E01072E000CBB
:10095000880B990B0E945304E0918803F09189035E
:1009600082E090E009958091DA029091DB02019695
:100970009093DB028093DA028C2FCF910895CE34CE
:1009800091F78EE40E943F0383ED91E00E943A03C9
:100990000E944E04009759F46091710170917201A8
:1009A000072E000C880B990B0E945304F1CF85365B
:1009B000910514F084E690E00E945A049093D902C5
:1009C0008093D8021092DB021092DA02AACF0F9322
:1009D0001F93CF93DF93CDB7DEB760970FB6F89430
:1009E000DEBF0FBECDBF242F042E000C330B3F9370
:1009F0004F93262F062E000C330B3F936F939F933C
:100A00008F931F9280E18F938E010F5F1F4F1F9373
:100A10000F930E941D0AC8010E943A030FB6F89472
:100A2000DEBF0FBECDBF60960FB6F894DEBF0FBE1F
:100A3000CDBFDF91CF911F910F910895DF92EF927B
:100A4000FF920F931F93CF93DF93CDB7DEB76097DD
:100A50000FB6F894DEBF0FBECDBF8FED91E00E94C0
:100A60003A036091690170916A01072E000C880BAE
:100A7000990B0E9453040E9490040DEE11E08B34F8
:100A800089F0282F082E000C330B3F938F931F9370
:100A90000F930E94070A0E9490040F900F900F90EE
:100AA0000F90EDCF0E944E04892B29F081E090E059
:100AB0000E945A04F7CF1092D9021092D80284EF04
:100AC00091E00E943A038BE40E943F030E9490044D
:100AD000833421F08EEF91E00E943A030E9490044B
:100AE000809300010E949004833421F08EEF91E006
:100AF0000E943A030E94900480538A3008F050C04C
:100B0000E82FF0E0E754FE4F8081082E000C990B8F
:100B100090937401809373010E949004833421F0B8
:100B20008EEF91E00E943A030E94900480538A3035
:100B3000D0F5E82FF0E0E754FE4F8081082E000C3E
:100B4000990B90930201809301010E9490048334D9
:100B500021F08EEF91E00E943A030E9490040FEF83
:100B60001FEF3AE0F32E833421F180538A30F0F402
:100B7000E82FF0E0E754FE4F8081082E000C990B1F
:100B80000F3F100711F410E000E0F09E9001F19E7D
:100B9000300D11248901080F191F0E949004E3CF22
:100BA0008FEF9FEFB5CF8FEF9FEFCBCF8FEF9FEF03
:100BB000E7CF0E949004EE24EA94FE2C2AE0D22E85
:100BC0008334F9F080538A30C8F4E82FF0E0E7541A
:100BD000FE4F8081082E000C990B2FEFE216F206D3
:100BE00011F4F12CE12CDE9C9001DF9C300D1124DE
:100BF0007901E80EF91E0E949004E2CF8FEF9FEF7B
:100C0000ECCF1093720100937101F0927601E092A3
:100C10007501FF92EF921F930F9380910001282F8F
:100C2000082E000C330B3F938F9380E192E09F934B
:100C30008F931F9280E18F938E010F5F1F4F1F9341
:100C40000F930E941D0AC8010E943A0367EE73E0E9
:100C500080E090E00E9453040FB6F894DEBF0FBE10
:100C6000CDBF60960FB6F894DEBF0FBECDBFDF914B
:100C7000CF911F910F91FF90EF90DF9008956F92A9
:100C80007F928F929F92AF92BF92CF92DF92EF921C
:100C9000FF920F931F93CF93DF935C010E94900408
:100CA000823531F0482F682F89E192E00E94E704F5
:100CB00099E7E92E91E0F92E23ECC22E21E0D22E05
:100CC0003AE0632EC601835C91408A159B050CF0C7
:100CD0007DC0D6017D906D010DEC11E086E7982E68
:100CE000E801CD5CD1400E949004893581F4DF9108
:100CF000CF911F910F91FF90EF90DF90CF90BF9019
:100D0000AF909F908F907F906F900C941E057816F7
:100D100039F0472D682F83E392E00E94E704E7CF84
:100D20000E949004893519F3891511F0492DF2CFED
:100D3000912C812C0E9490048935C9F28B3229F0C4
:100D40008D32C9F4919481949108D701ED91FC9171
:100D5000C230D105A9F130F5209761F1219769F1F1
:100D60000F5F1F4FF8019080FFE29F12B9CF82E022
:100D7000E80EF11CA7CF80538A3088F4E82FF0E00A
:100D8000E754FE4F8081082E000C990B689C90015F
:100D9000699C300D11244901880E991ECBCF8FEF2D
:100DA0009FEFF4CFC330D10571F02497C9F6918637
:100DB0008086D6CF91828082D3CF93828282D0CF19
:100DC00095828482CDCF97828682CACFDF91CF91E0
:100DD0001F910F91FF90EF90DF90CF90BF90AF9059
:100DE0009F908F907F906F9008951F920F920FB6F3
:100DF0000F9211242F933F934F935F936F937F93A1
:100E00008F939F93AF93BF93EF93FF9385EE92E001
:100E10000E942B01FF91EF91BF91AF919F918F9114
:100E20007F916F915F914F913F912F910F900FBEE6
:100E30000F901F9018951F920F920FB60F921124CA
:100E40002F938F939F93EF93FF93E091F502F0918F
:100E5000F6028081E091FB02F091FC0282FD1BC052
:100E600090818091FE028F5F8F732091FF02821725
:100E700041F0E091FE02F0E0EB51FD4F958F809341
:100E8000FE02FF91EF919F918F912F910F900FBED6
:100E90000F901F9018958081F4CF1F920F920FB67C
:100EA0000F9211242F933F938F939F93AF93BF93F0
:100EB0008091DD029091DE02A091DF02B091E0020C
:100EC0003091DC0223E0230F2D3758F50196A11D48
:100ED000B11D2093DC028093DD029093DE02A0938B
:100EE000DF02B093E0028091E1029091E202A091D2
:100EF000E302B091E4020196A11DB11D8093E102CD
:100F00009093E202A093E302B093E402BF91AF9109
:100F10009F918F913F912F910F900FBE0F901F9037
:100F2000189526E8230F0296A11DB11DD2CF789403
:100F300084B5826084BD84B5816084BD85B58260DE
:100F400085BD85B5816085BD80916E00816080938F
:100F50006E001092810080918100826080938100F8
:100F60008091810081608093810080918000816008
:100F7000809380008091B10084608093B100809163
:100F8000B00081608093B00080917A00846080938B
:100F90007A0080917A00826080937A0080917A0052
:100FA000816080937A0080917A00806880937A00D3
:100FB0001092C1008DE00E94870086EA90E0909335
:100FC0008D0380938C0384E692E090938B0380934F
:100FD0008A0386E092E0909389038093880389E0F6
:100FE00092E0909391038093900387EA90E090932E
:100FF00093038093920383EC92E090938F0380930A
:101000008E0387E291E090938703809386038BE6BB
:1010100092E0909385038093840386E692E0909318
:1010200083038093820387EE93E090936E01809315
:101030006D0183E690E090936C0180936B0180EDED
:1010400097E090936A018093690183E492E00E94A3
:101050003A03109268011092670110927001109289
:101060006F01E0919203F091930382E090E0099583
:10107000E0919003F091910382E090E00995E09176
:101080008E03F0918F0380E895E2099582E592E066
:101090000E943A030E944E04181619062CF481E0AF
:1010A00090E00E945A04F6CF8AE40E943F036091C8
:1010B0006B0170916C01072E000C880B990B0E943C
:1010C00053040E944E041816190624F481E090E09F
:1010D0000E945A04809103018A3431F781E692E03C
:1010E0000E943A030E941E050E94C9038091730169
:1010F000909174010E943F068FE692E00E943A03AD
:1011000020E0C22E20E0D22E0E94C903992493949D
:10111000D0E0C0E00E944E047C01892B09F080C021
:10112000992009F471C080917501909176018C1716
:101130009D0709F05EC00E945804982E80E50E9429
:101140003F0380916F01909170019C012F5F3F4F91
:10115000283E43E0340751F13093700120936F0132
:101160000E9444038DECA82E81E0B82E96E7892ECC
:10117000E501CD5CD14081E60E943F03882D0E94AD
:101180003F03C230D10559F1B0F42097F1F0219717
:1011900009F1C8010E9485038FEFA81AB80AF5016A
:1011A0008080FFE28F12E4CFE701B4CF109270018C
:1011B00010926F01D5CFC330D105B1F0249749F714
:1011C0000091860210918702E4CF00917E02109177
:1011D0007F02DFCF0091800210918102DACF00916F
:1011E000820210918302D5CF009184021091850272
:1011F000D0CF7E014FEFE41AF40A61E070E080E0A6
:1012000090E00E945304D0CF6091710170917201FF
:10121000072E000C880B990B0E9453047E01C4CF4B
:1012200080917301909174010E943F06C0919403D4
:10123000D0919503C130D10589F561E08DE00E9420
:10124000BA018091770190917801019749F08091DE
:10125000480490914904019690934904809348046E
:1012600080914804909149049093F3038093F20392
:10127000D0937801C093770163E670E080E090E05E
:101280000E943102C114D10409F43ECF0E9413011F
:10129000882309F439CF0E94000036CF60E08DE04A
:1012A0000E94BA01DDCFE5EEF2E01382128288EEF1
:1012B00093E0A0E0B0E084839583A683B7838BEAB4
:1012C00091E09183808385EC90E09587848784EC1E
:1012D00090E09787868780EC90E0918B808B81EC03
:1012E00090E0938B828B82EC90E0958B848B86ECE4
:1012F00090E0978B868B118E128E138E148E08952C
:101300002F923F924F925F926F927F928F929F9215
:10131000AF92BF92CF92DF92EF92FF920F931F9303
:10132000CF93DF93CDB7DEB7CA1BDB0B0FB6F894B4
:10133000DEBF0FBECDBF09942A88398848885F84F4
:101340006E847D848C849B84AA84B984C884DF8065
:10135000EE80FD800C811B81AA81B981CE0FD11D49
:101360000FB6F894DEBF0FBECDBFED01089597FB19
:10137000072E16F4009407D077FD09D00E94ED09DE
:1013800007FC05D03EF4909581959F4F0895709588
:1013900061957F4F0895A1E21A2EAA1BBB1BFD0188
:1013A0000DC0AA1FBB1FEE1FFF1FA217B307E40744
:1013B000F50720F0A21BB30BE40BF50B661F771F9C
:1013C000881F991F1A9469F760957095809590957C
:1013D0009B01AC01BD01CF010895AA1BBB1B51E1CC
:1013E00007C0AA1FBB1FA617B70710F0A61BB70B95
:1013F000881F991F5A95A9F780959095BC01CD013A
:101400000895EE0FFF1F0590F491E02D0994B0E0D0
:10141000A0E0EDE0FAE00C949009AE014B5F5F4F65
:10142000FA0161917191AF0180914C0490914D044A
:101430000E944D0AE2E00C94AC09AEE0B0E0E3E2B9
:10144000FAE00C948E090D891E898F89988D26E00B
:101450002C831A83098397FF02C080E090E80197EC
:101460009E838D83AE01455E5F4F698D7A8DCE017F
:1014700001960E944D0A4D815E8157FD0AC02F8161
:101480003885421753070CF49A01020F131FF80115
:1014900010822E96E4E00C94AA09ABE0B0E0E3E5FC
:1014A000FAE00C9480097C013B018A01FC0117825F
:1014B0001682838181FFC8C1CE0101965C01F701CC
:1014C0009381F30193FD859193FF81913F018823DF
:1014D00009F453C1853239F493FD859193FF8191CD
:1014E0003F01853229F4B70190E00E943D0CE7CF1F
:1014F000912C212C312CFFE1F31538F08B3211F1B6
:1015000090F4803209F1833229F137FC3CC020EDA0
:10151000280F2A3050F536FE20C08AE0989E200D14
:101520001124922E06C08D3291F0803371F76894A9
:1015300030F8F30193FD859193FF81913F01811173
:10154000DACF21C0689431F8689432F8F2CF689409
:1015500033F8EFCF689434F8ECCFEAE02E9E200DFC
:101560001124222E689435F8E4CF8E3229F436FC0B
:1015700004C1689436F8DDCF8C3619F4689437F8D6
:10158000D8CF8836B1F2982F9F7D95549330E0F0F4
:101590008336A1F18337C1F1833509F063C0280197
:1015A000F2E04F0E511CF801C080D180692D70E02F
:1015B00036FC02C06FEF7FEFC6010E94270C4C0182
:1015C000689437F882010AC00C5F1F4FFFE3F9836C
:1015D00088248394912C6501E89437F833FE2DC05C
:1015E000522C8114910471F5552009F468CFB7018C
:1015F00080E290E00E943D0C5A94F6CFF801808181
:1016000089830E5F1F4FE4CF2801F2E04F0E511C7B
:10161000F801C080D180692D70E036FC02C06FEF08
:101620007FEFC6010E94320C4C018201D5CFB70179
:1016300080E290E00E943D0C2A942814190409F0DD
:10164000B0F7CECFF60137FC859137FE81916F015F
:10165000B70190E00E943D0C51105A94F1E08F1AAE
:101660009108BFCF843619F0893609F077C0F801A8
:1016700037FE6BC060817181828193810C5F1F4F47
:10168000F32DFF763F2E97FF09C0909580957095BA
:1016900061957F4F8F4F9F4F689437F82AE030E075
:1016A000A5010E946D0CC82ECA188C2C432C36FE46
:1016B0000CC0E89440F8C91440F434FE05C032FC74
:1016C00003C0F32DFE7E4F2E892C44FE95C0FE01F3
:1016D000EC0DF11D8081803309F087C0242D297E17
:1016E000422E842D8870582E43FC95C040FE8FC03A
:1016F0009C2C821418F42C0C922C981844FE91C047
:10170000B70180E390E00E943D0C42FE09C088E7EB
:1017100090E041FE02C088E590E0B7010E943D0CD8
:10172000C91408F48AC0CA94D12C9FEFC91AD90AE7
:10173000CA0CDB1CF60182916F01B70190E00E9498
:101740003D0CAC14BD04B1F74FCF60817181072E01
:10175000000C880B990B0E5F1F4F92CFD32CE8948F
:10176000D4F82AE030E0853739F1232D297FD22EB5
:101770008F3601F148F48835A9F0F7018681978109
:101780002B96E2E10C949C09803749F08837A9F741
:10179000D4FE02C06894D2F820E130E00DC0689415
:1017A000D4F8F6CF34FE03C0822F8660D82E20E115
:1017B00032E002C028E030E0F801D7FE0FC06081BF
:1017C0007181828193810C5F1F4FA5010E946D0C76
:1017D000C82ECA183D2CE89437F867CF6081718114
:1017E00090E080E00E5F1F4FF0CF42FC02C0839478
:1017F00078CF8394839475CF842D867809F471CF44
:10180000F6CFB70180E290E00E943D0C83948214F1
:10181000C0F3512C73CF522C5818821408F46ECF99
:10182000F8CF842D867809F47BCF8BE241FE80E2ED
:1018300047FC8DE2B70190E071CFB70180E390E003
:101840000E943D0C9A946CCF8FEF9FEF99CFFC01D3
:101850000590615070400110D8F7809590958E0FDB
:101860009F1F0895FC016150704001900110D8F74E
:10187000809590958E0F9F1F08950F931F93CF9380
:10188000DF93182F092FEB018B8181FD09C01FEF1A
:101890000FEF812F902FDF91CF911F910F9108951E
:1018A00082FF14C02E813F818C819D8128173907CA
:1018B0003CF4E881F981CF010196998388831083F4
:1018C0008E819F8101969F838E83E3CFE885F98582
:1018D000812F0995892BA1F3DACFFA01AA272830A5
:1018E00051F1203181F1E8946F936E7F6E5F7F4FED
:1018F0008F4F9F4FAF4FB1E03ED0B4E03CD0670F69
:10190000781F891F9A1FA11D680F791F8A1F911DBB
:10191000A11D6A0F711D811D911DA11D20D009F40B
:1019200068943F912AE0269F11243019305D31934D
:10193000DEF6CF010895462F4770405D4193B3E036
:101940000FD0C9F7F6CF462F4F70405D4A3318F0DD
:10195000495D31FD4052419302D0A9F7EACFB4E08E
:10196000A6959795879577956795BA95C9F7009746
:101970006105710508959B01AC010A2E06945795E7
:10198000479537952795BA95C9F7620F731F841F3E
:0A199000951FA01D0895F894FFCFE5
:10199A0041FFFF2D2D2D2D232D2D2D2D232D2D2DC9
:1019AA002D232D2D2D2D232D2D2D2D232D2D2D2D7B
:1019BA00232D2D2D2D232D2D2D2D233D2D2D2D3D4B
:1019CA002D2D2D2D3D2D2D2D2D232D2D2D2D232D41
:1019DA002D2D2D232D2D2D2D232D2D2D2D232D2D4B
:1019EA002D2D232D2D2D2D232D2D2D2D233D2D2D2B
:1019FA002D3D2D2D2D2D3DFFFFFFFFFFFFFFFFFF8B
:101A0A00FF6300FFFFFFFFFFFF94039E03A803B2DB
:101A1A0003BC03C603D003DA03E4033031323334A0
:101A2A003536373839EE03F80302040C041604205D
:101A3A00042A0434043E04000000004D01A900D623
:101A4A00009A010701E500F90000010203040506F6
:101A5A000708096162636465666768692F76777843
:101A6A00797A2F617661696C61626C652829002335
:101A7A0023232052657365742023232300524420B4
:101A8A0025630A002320476F74204B20230023205C
:101A9A0050726F6772616D206572726F72202300D7
:101AAA002563202564202564004578706563746584
:101ABA006420522062757420676F74202563202584
:101ACA00630A003D3D2045525220256320213D20D6
:101ADA002563002320636F72655F73657475702DCB
:101AEA002D0023232320496E6974204A20232323AF
:101AFA000023232320476F74204A20232323002313
:0E1B0A00202D2D636F72655F7365747570001A
:00000001FF
